:020000040800F2
:1000000000C000208D09000881080008870800084A
:100010008D080008930800089908000800000000F7
:100020000000000000000000000000009F08000821
:10003000AB08000800000000B7080008C30800086B
:10004000D5090008D5090008D5090008D509000818
:10005000D5090008D5090008D5090008D509000808
:10006000D5090008D5090008D5090008D5090008F8
:10007000D5090008D5090008D5090008D5090008E8
:10008000D5090008D5090008D5090008D5090008D8
:10009000D5090008D5090008D5090008D5090008C8
:1000A000D5090008D5090008D5090008D5090008B8
:1000B000D1080008D5090008D5090008D5090008AD
:1000C000D5090008D5090008D5090008D509000898
:1000D000D5090008D5090008D5090008D509000888
:1000E000D5090008D5090008D5090008D509000878
:1000F000D5090008D5090008D5090008D509000868
:10010000D5090008D5090008D5090008D509000857
:10011000D5090008D5090008D5090008D509000847
:10012000D5090008D5090008D5090008D509000837
:1001300000000000000000000000000000000000BF
:1001400000000000000000000000000000000000AF
:10015000000000000000000000000000000000009F
:10016000000000000000000000000000000000008F
:10017000000000000000000000000000000000007F
:10018000000000000000000000000000000000006F
:10019000000000000000000000000000000000005F
:1001A000000000000000000000000000000000004F
:1001B000000000000000000000000000000000003F
:1001C000000000000000000000000000000000002F
:1001D000000000000000000000000000000000001F
:0401E0005FF8E0F1F3
:1001E40010B5054C237833B9044B13B10448AFF36D
:1001F40000800123237010BD1800002000000000BF
:100204007020000808B5034B1BB103490348AFF342
:10021400008008BD000000001C00002070200008C1
:1002240080B582B000AF00F0D5FB00F03FF800F0DD
:10023400C5F800F077F81B4801F016FB00F048F908
:100244000021002000F052FB0021012000F04EFBB1
:1002540000237B6000233B60134B1B68012B0ED1F2
:100264000221002000F042FB786800F067F97B6807
:1002740001337B607B68072B01DD00237B600A4B25
:100284005B68012BE8D16421012000F02FFB3B685F
:1002940001333B603B680A2BDEDD00F017FA0023D4
:1002A4003B60D9E7340000207C00002080B590B08A
:1002B40000AF07F1180328220021184601F0AAFE16
:1002C4003B1D00221A605A609A60DA601A610223A8
:1002D400BB610123BB621023FB6200237B6307F134
:1002E4001803184600F092FE0346002B01D000F0DC
:1002F400E9F80F237B600023BB600023FB6000232D
:100304003B6100237B613B1D0021184601F000F98D
:100314000346002B01D000F0D5F800BF4037BD469E
:1003240080BD000080B586B000AF07F1080300224D
:100334001A605A609A60DA603B4600221A605A607A
:100344001D4B4FF080421A601B4B40F2E7325A605B
:10035400194B00229A60184B0722DA60164B0022D0
:100364001A61154B00229A61134801F02DFA0346D5
:10037400002B01D000F0A6F84FF48053BB6007F1C6
:10038400080319460C4801F0BFFB0346002B01D0BB
:1003940000F098F800233B6000237B603B4619463D
:1003A400054801F0B9FD0346002B01D000F08AF89E
:1003B40000BF1837BD4680BD3400002080B588B02A
:1003C40000AF07F1100300221A605A609A60DA60E5
:1003D400334B9B69324A43F010039361304B9B6962
:1003E40003F01003FB60FB682D4B9B692C4A43F020
:1003F400040393612A4B9B6903F00403BB60BB684D
:10040400274B9B69264A43F008039361244B9B695D
:1004140003F008037B607B6800224EF23F01214811
:1004240000F0DCFD002249F6F0711F4800F0D6FD13
:1004340000224FF6F3711D4800F0D0FD4EF23F0349
:100444003B6101237B610023BB610223FB6107F154
:1004540010031946134800F02DFC49F6F0733B6174
:1004640001237B610023BB610223FB6107F11003BD
:1004740019460D4800F01EFC4FF6F3733B6101234F
:100484007B610023BB610223FB6107F11003194662
:10049400064800F00FFC00BF2037BD4680BD00BFFA
:1004A400001002400010014000080140000C01400F
:1004B40080B582B000AF786000F036FA00BF08372C
:1004C400BD4680BD80B400AF72B600BFFEE7000039
:1004D40080B500AF00224FF48071174800F07EFD14
:1004E40000224FF40071144800F078FD00224FF40C
:1004F4008061114800F072FD00224FF400610E4843
:1005040000F06CFD00224FF480510B4800F066FDB2
:1005140000224FF40051084800F060FD00224FF41F
:100524008041054800F05AFD00224FF40041024882
:1005340000F054FD00BF80BD000C014080B582B0C6
:1005440000AF7860FFF7C4FF7B68072B4AD801A28D
:1005540052F823F07905000887050008950500087E
:10056400A3050008B1050008BF050008CD05000873
:10057400DB05000801224FF48071504800F02EFD85
:1005840031E001224FF400714C4800F027FD2AE0CD
:1005940001224FF48061494800F020FD23E001224C
:1005A4004FF40061454800F019FD1CE001224FF4AE
:1005B4008051424800F012FD15E001224FF4005131
:1005C4003E4800F00BFD0EE001224FF480413B4811
:1005D40000F004FD07E001224FF40041374800F029
:1005E400FDFC00E000BF364A7B6813441B7803F02F
:1005F4000103DBB21A462021324800F0EFFC304AF6
:100604007B6813441B7803F00203DBB21A464FF4F1
:1006140080612C4800F0E2FC294A7B6813441B7873
:1006240003F00403DBB21A464FF40061254800F0DE
:10063400D5FC234A7B6813441B7803F00803DBB220
:100644001A464FF480511F4800F0C8FC1C4A7B68CE
:1006540013441B7803F01003DBB21A464FF4004135
:10066400184800F0BBFC164A7B6813441B7803F05F
:100674002003DBB21A464FF40051134800F0AEFCDD
:100684000F4A7B6813441B7803F04003DBB21A461D
:100694004FF480410C4800F0A1FC094A7B681344E4
:1006A4001B7823F07F03DBB21A464FF4004106485F
:1006B40000F094FC00BF0837BD4680BD000C01402B
:1006C40000000020000801400010014080B483B005
:1006D40000AF3E4B1B78DB09FB713C4B5B78DB09BD
:1006E400BB713A4B9B78DB097B71384BDB78DB09B8
:1006F4003B71364B1B79DB09FB70344B5B79DB09AF
:10070400BB70324B9B79DB097B70304BDB79DB09A7
:100714003B702E4B1B785B005AB297F9073013439A
:100724005BB2DAB2294B1A70284B5B785B005AB281
:1007340097F9063013435BB2DAB2244B5A70234B59
:100744009B785B005AB297F9053013435BB2DAB277
:100754001E4B9A701D4BDB785B005AB297F904303C
:1007640013435BB2DAB2194BDA70184B1B795B0096
:100774005AB297F9033013435BB2DAB2134B1A71CE
:10078400124B5B795B005AB297F9023013435BB2A8
:10079400DAB20E4B5A710D4B9B795B005AB297F942
:1007A400013013435BB2DAB2084B9A71074BDB7921
:1007B4005B005AB297F9003013435BB2DAB2034BD1
:1007C400DA7100BF0C37BD4680BC704700000020C2
:1007D40080B485B000AF154B9B69144A43F0010304
:1007E4009361124B9B6903F00103BB60BB680F4B21
:1007F400DB690E4A43F08053D3610C4BDB6903F091
:1008040080537B607B680A4B5B68FB60FB6823F06A
:10081400E063FB60FB6843F00073FB60044AFB6821
:10082400536000BF1437BD4680BC704700100240BF
:100834000000014080B584B000AF78607B681B681D
:10084400B3F1804F13D10C4BDB690B4A43F0010326
:10085400D361094BDB6903F00103FB60FB680022F1
:1008640000211C2000F0EFF91C2000F008FA00BF62
:100874001037BD4680BD00BF0010024080B400AFF9
:10088400FEE780B400AFFEE780B400AFFEE780B4BB
:1008940000AFFEE780B400AFFEE780B400AF00BF56
:1008A400BD4680BC704780B400AF00BFBD4680BC6D
:1008B400704780B400AF00BFBD4680BC704780B5B0
:1008C40000AF00F0CDF800BF80BD000080B500AFE0
:1008D400024801F029F800BF80BD00BF34000020A9
:1008E40080B400AF00BFBD4680BC704780B483B005
:1008F40000AF78603960094A7B68002142F8231010
:10090400074B1B683A6892FBF3F206497B6841F88F
:10091400232000BF0C37BD4680BC70477C000020FC
:100924000C000020A400002080B483B000AF00239A
:100934007B601CE0124A7B6852F82330002B13DBE7
:100944000F4A7B6852F823305A1E0D497B6841F8E0
:1009540023200B4A7B6852F82330002B04DC094A1D
:100964007B68012142F823107B6801337B607B683C
:10097400092BDFDD00BF00BF0C37BD4680BC7047CC
:10098400A40000207C000020FFF7AAFF0B480C49BC
:100994000C4A002302E0D458C4500433C4188C42D7
:1009A400F9D3094A094C002301E013600432A2423E
:1009B400FBD301F037FBFFF733FC70470000002046
:1009C40018000020B420000818000020D0000020E7
:1009D400FEE7000080B500AF084B1B68074A43F0F0
:1009E40010031360032000F023F90F2000F008F82F
:1009F400FFF7EEFE0023184680BD00BF0020024032
:100A040080B582B000AF7860124B1A68124B1B7825
:100A140019464FF47A73B3FBF1F3B2FBF3F31846C0
:100A240000F03BF90346002B01D001230EE07B6864
:100A34000F2B0AD8002279684FF0FF3000F003F939
:100A4400064A7B681360002300E001231846083738
:100A5400BD4680BD080000201400002010000020C6
:100A640080B400AF054B1B781A46054B1B68134432
:100A7400034A136000BFBD4680BC704714000020C9
:100A8400CC00002080B400AF024B1B681846BD4662
:100A940080BC7047CC00002080B485B000AF786083
:100AA4007B6803F00703FB600C4BDB68BB60BA6830
:100AB4004FF6FF031340BB60FB681A02BB68134385
:100AC40043F0BF6343F40033BB60044ABB68D360A4
:100AD40000BF1437BD4680BC704700BF00ED00E086
:100AE40080B400AF044BDB681B0A03F0070318460D
:100AF400BD4680BC704700BF00ED00E080B483B009
:100B040000AF0346FB7197F90730002B0BDBFB7931
:100B140003F01F02064997F907305B09012000FA28
:100B240002F241F8232000BF0C37BD4680BC704759
:100B340000E100E080B483B000AF03463960FB718C
:100B440097F90730002B0ADB3B68DAB20C4997F9B6
:100B540007301201D2B20B4483F800230AE03B6849
:100B6400DAB20849FB7903F00F03043B1201D2B255
:100B74000B441A7600BF0C37BD4680BC704700BFDB
:100B840000E100E000ED00E080B489B000AFF8605F
:100B9400B9607A60FB6803F00703FB61FB69C3F18A
:100BA4000703042B28BF0423BB61FB690433062B12
:100BB40002D9FB69033B00E000237B614FF0FF3265
:100BC400BB6902FA03F3DA43BB681A407B699A40B3
:100BD4004FF0FF317B6901FA03F3D9437B680B4083
:100BE400134318462437BD4680BC704780B582B095
:100BF40000AF78607B68013BB3F1807F01D30123B0
:100C04000FE00A4A7B68013B53600F214FF0FF302D
:100C1400FFF790FF054B00229A60044B07221A60ED
:100C2400002318460837BD4680BD00BF10E000E031
:100C340080B582B000AF78607868FFF72DFF00BF01
:100C44000837BD4680BD80B586B000AF0346B960A5
:100C54007A60FB7300237B61FFF742FF78617A6857
:100C6400B9687869FFF790FF024697F90F3011468B
:100C74001846FFF75FFF00BF1837BD4680BD80B53B
:100C840082B000AF0346FB7197F907301846FFF7AF
:100C940035FF00BF0837BD4680BD80B582B000AFC8
:100CA40078607868FFF7A2FF034618460837BD4608
:100CB40080BD000080B48BB000AF78603960002341
:100CC4007B6200233B6279E101227B6A02FA03F32F
:100CD400FB613B681B68FA691340BB61BA69FB6935
:100CE4009A4240F068813B685B68964A93425ED0C2
:100CF400944A934275D8944A934258D0924A934264
:100D04006FD8924A934252D0904A934269D8904AFB
:100D140093424CD08E4A934263D88E4A934246D033
:100D24008C4A93425DD8122B2AD8122B59D801A28F
:100D340052F823F0B30D00088D0D00089F0D000834
:100D4400E10D0008E70D0008E70D0008E70D0008B5
:100D5400E70D0008E70D0008E70D0008E70D00089F
:100D6400E70D0008E70D0008E70D0008E70D00088F
:100D7400E70D0008E70D0008950D0008A90D00080F
:100D8400754A934213D02CE03B68DB683B6229E050
:100D94003B68DB6804333B6224E03B68DB68083370
:100DA4003B621FE03B68DB680C333B621AE03B6844
:100DB4009B68002B02D104233B6213E03B689B68D1
:100DC400012B05D108233B627B68FA691A6109E0AB
:100DD40008233B627B68FA695A6103E000233B62A3
:100DE40000E000BFBB69FF2B01D87B6801E07B6892
:100DF40004337B61BB69FF2B02D87B6A9B0002E052
:100E04007B6A083B9B003B617B691A680F213B6945
:100E140001FA03F3DB431A40396A3B6901FA03F32D
:100E24001A437B691A603B685B6803F08053002BAC
:100E340000F0C180494B9B69484A43F00103936128
:100E4400464B9B6903F00103BB60BB68444A7B6A61
:100E54009B08023352F82330FB607B6A03F00303E0
:100E64009B000F2202FA03F3DB43FA681340FB6092
:100E74007B683C4A93421FD07B683B4A934219D01B
:100E84007B683A4A934213D07B68394A93420DD027
:100E94007B68384A934207D07B68374A934201D132
:100EA40005230AE0062308E0042306E0032304E004
:100EB400022302E0012300E000237A6A02F0030225
:100EC40092009340FA681343FB6025497B6A9B08B0
:100ED4000233FA6841F823203B685B6803F480130B
:100EE400002B06D0254B9A682449BB6913438B60B9
:100EF40006E0224B9A68BB69DB43204913408B60B0
:100F04003B685B6803F40013002B06D01B4BDA68C4
:100F14001A49BB691343CB6006E0184BDA68BB6916
:100F2400DB4316491340CB603B685B6803F4003332
:100F3400002B25D0114B5A681049BB6913434B60F1
:100F440025E000BF00003210000031100000221024
:100F540000002110000012100000111000100240C7
:100F64000000014000080140000C01400010014055
:100F74000014014000180140001C0140000401401D
:100F8400154B5A68BB69DB43134913404B603B68FC
:100F94005B6803F48033002B06D00F4B1A680E49AC
:100FA400BB6913430B6006E00B4B1A68BB69DB4358
:100FB400094913400B607B6A01337B623B681A6802
:100FC4007B6A22FA03F3002B7FF47EAE00BF00BFDE
:100FD4002C37BD4680BC70470004014080B483B008
:100FE40000AF78600B467B8013467B707B78002BC8
:100FF40003D07A887B681A6103E07B881A047B68D3
:101004001A6100BF0C37BD4680BC704780B586B0FE
:1010140000AF78607B68002B01D1012372E27B680A
:101024001B6803F00103002B00F08780924B5B6880
:1010340003F00C03042B0CD08F4B5B6803F00C0300
:10104400082B12D18C4B5B6803F48033B3F5803FDB
:101054000BD1894B1B6803F40033002B6CD07B68E5
:101064005B68002B68D101234CE27B685B68B3F5B5
:10107400803F06D1804B1B687F4A43F48033136062
:101084002EE07B685B68002B0CD17B4B1B687A4A93
:1010940023F480331360784B1B68774A23F480234E
:1010A40013601DE07B685B68B3F5A02F0CD1724B15
:1010B4001B68714A43F4802313606F4B1B686E4AAC
:1010C40043F4803313600BE06B4B1B686A4A23F4D0
:1010D40080331360684B1B68674A23F480231360D2
:1010E4007B685B68002B13D0FFF7CCFC386108E009
:1010F400FFF7C8FC02463B69D31A642B01D90323CA
:1011040000E25D4B1B6803F40033002BF0D014E0C5
:10111400FFF7B8FC386108E0FFF7B4FC02463B690E
:10112400D31A642B01D90323ECE1534B1B6803F45A
:101134000033002BF0D100E000BF7B681B6803F094
:101144000203002B63D04C4B5B6803F00C03002BB1
:101154000BD0494B5B6803F00C03082B1CD1464BA6
:101164005B6803F48033002B16D1434B1B6803F0F8
:101174000203002B05D07B681B69012B01D00123DE
:10118400C0E13D4B1B6823F0F8027B685B69DB0020
:10119400394913430B603AE07B681B69002B20D06C
:1011A400364B01221A60FFF76DFC386108E0FFF747
:1011B40069FC02463B69D31A022B01D90323A1E13E
:1011C4002D4B1B6803F00203002BF0D02A4B1B6845
:1011D40023F0F8027B685B69DB00274913430B604B
:1011E40015E0264B00221A60FFF74CFC386108E03A
:1011F400FFF748FC02463B69D31A022B01D90323AB
:1012040080E11D4B1B6803F00203002BF0D17B68C7
:101214001B6803F00803002B3AD07B689B69002B02
:1012240019D0174B01221A60FFF72CFC386108E033
:10123400FFF728FC02463B69D31A022B01D903238A
:1012440060E10D4B5B6A03F00203002BF0D0012038
:1012540000F09CFA1CE00A4B00221A60FFF712FC13
:1012640038610FE0FFF70EFC02463B69D31A022BEC
:1012740008D9032346E100BF0010024000004242A7
:1012840080044242924B5B6A03F00203002BE9D1D3
:101294007B681B6803F00403002B00F0A680002386
:1012A400FB758B4BDB6903F08053002B0DD1884B0E
:1012B400DB69874A43F08053D361854BDB6903F0D4
:1012C4008053BB60BB680123FB75824B1B6803F42E
:1012D4008073002B18D17F4B1B687E4A43F48073C4
:1012E4001360FFF7CFFB386108E0FFF7CBFB024642
:1012F4003B69D31A642B01D9032303E1754B1B68A3
:1013040003F48073002BF0D07B68DB68012B06D1DB
:101314006F4B1B6A6E4A43F0010313622DE07B6836
:10132400DB68002B0CD16A4B1B6A694A23F001036A
:101334001362674B1B6A664A23F0040313621CE0C2
:101344007B68DB68052B0CD1614B1B6A604A43F058
:10135400040313625E4B1B6A5D4A43F0010313628C
:101364000BE05B4B1B6A5A4A23F001031362584B90
:101374001B6A574A23F0040313627B68DB68002B63
:1013840015D0FFF77FFB38610AE0FFF77BFB0246CD
:101394003B69D31A41F28832934201D90323B1E065
:1013A4004B4B1B6A03F00203002BEED014E0FFF753
:1013B40069FB38610AE0FFF765FB02463B69D31A13
:1013C40041F28832934201D903239BE0404B1B6ACC
:1013D40003F00203002BEED1FB7D012B05D13C4B26
:1013E400DB693B4A23F08053D3617B68DB69002BC4
:1013F40000F08780364B5B6803F00C03082B61D048
:101404007B68DB69022B46D1334B00221A60FFF75D
:1014140039FB386108E0FFF735FB02463B69D31A14
:10142400022B01D903236DE0294B1B6803F00073E1
:10143400002BF0D17B681B6AB3F5803F08D1244BA5
:101444005B6823F400327B689B68214913434B603B
:101454001F4B5B6823F474127B68196A7B685B6AB0
:101464000B431B4913434B601B4B01221A60FFF7CC
:1014740009FB386108E0FFF705FB02463B69D31A14
:10148400022B01D903233DE0114B1B6803F00073C9
:10149400002BF0D035E0104B00221A60FFF7F2FA6F
:1014A400386108E0FFF7EEFA02463B69D31A022BD3
:1014B40001D9032326E0064B1B6803F00073002BBD
:1014C400F0D11EE07B68DB69012B07D1012319E011
:1014D4000010024000700040600042420B4B5B6809
:1014E400FB60FB6803F480327B681B6A9A4206D176
:1014F400FB6803F470127B685B6A9A4201D0012393
:1015040000E0002318461837BD4680BD0010024095
:1015140080B584B000AF786039607B68002B01D15E
:101524000123D0E06A4B1B6803F007033A689A4230
:1015340010D9674B1B6823F0070265493B681343C6
:101544000B60634B1B6803F007033A689A4201D0AF
:101554000123B8E07B681B6803F00203002B20D052
:101564007B681B6803F00403002B05D0594B5B68B0
:10157400584A43F4E06353607B681B6803F0080334
:10158400002B05D0534B5B68524A43F460535360BD
:10159400504B5B6823F0F0027B689B684D49134312
:1015A4004B607B681B6803F00103002B40D07B6811
:1015B4005B68012B07D1474B1B6803F40033002BF6
:1015C40015D101237FE07B685B68022B07D1414B77
:1015D4001B6803F00073002B09D1012373E03D4B1A
:1015E4001B6803F00203002B01D101236BE0394B8C
:1015F4005B6823F003027B685B68364913434B60E6
:10160400FFF740FAF8600AE0FFF73CFA0246FB688D
:10161400D31A41F28832934201D9032353E02D4B6C
:101624005B6803F00C027B685B689B009A42EBD119
:10163400274B1B6803F007033A689A4210D2244BE5
:101644001B6823F0070222493B6813430B60204BBD
:101654001B6803F007033A689A4201D0012332E081
:101664007B681B6803F00403002B08D0194B5B68EC
:1016740023F4E0627B68DB68164913434B607B68A4
:101684001B6803F00803002B09D0124B5B6823F49A
:1016940060527B681B69DB000E4913434B6000F00A
:1016A40021F802460B4B5B681B0903F00F030A4940
:1016B400CB5C22FA03F3094A1360094B1B681846F2
:1016C400FFF79EF9002318461037BD4680BD00BFC2
:1016D400002002400010024088200008080000207A
:1016E4001000002080B487B000AF0023FB6000230B
:1016F400BB6000237B6100237B6000233B611E4BA6
:101704005B68FB60FB6803F00C03042B02D0082B1E
:1017140003D027E0194B3B6127E0FB689B0C03F0E7
:101724000F03174AD35C7B60FB6803F48033002B00
:1017340010D0114B5B685B0C03F00103114AD35CBE
:10174400BB607B680D4A03FB02F2BB68B2FBF3F398
:101754007B6104E07B680C4A02FB03F37B617B69D9
:101764003B6102E0054B3B6100BF3B6918461C37F7
:10177400BD4680BC704700BF0010024000127A00D2
:1017840098200008A820000800093D0080B485B016
:1017940000AF78600A4B1B680A4AA2FB03235B0A6A
:1017A4007A6802FB03F3FB6000BFFB685A1EFA6011
:1017B400002BF9D100BF00BF1437BD4680BC704771
:1017C40008000020D34D621080B582B000AF78606D
:1017D4007B68002B01D1012341E07B6893F83D3005
:1017E400DBB2002B06D17B68002283F83C207868AA
:1017F400FFF720F87B68022283F83D207B681A6893
:101804007B6804331946104600F06AFA7B680122AB
:1018140083F846207B68012283F83E207B680122FE
:1018240083F83F207B68012283F840207B680122F3
:1018340083F841207B68012283F842207B680122DF
:1018440083F843207B68012283F844207B680122CB
:1018540083F845207B68012283F83D200023184645
:101864000837BD4680BD000080B485B000AF786005
:101874007B6893F83D30DBB2012B01D0012344E0B7
:101884007B68022283F83D207B681B68DA687B68EA
:101894001B6842F00102DA607B681B681D4A9342B0
:1018A40018D07B681B681C4A934213D07B681B6862
:1018B400B3F1804F0ED07B681B68184A934209D05D
:1018C4007B681B68164A934204D07B681B68154AE0
:1018D400934211D17B681B689B6803F00703FB608C
:1018E400FB68062B10D07B681B681A687B681B6832
:1018F40042F001021A6007E07B681B681A687B6883
:101904001B6842F001021A60002318461437BD46D2
:1019140080BC7047002C01400034014000040040AA
:1019240000080040000C004080B584B000AF78602F
:101934007B681B68DB68FB607B681B681B69BB609A
:10194400BB6803F00203002B20D0FB6803F0020302
:10195400002B1BD07B681B686FF002021A617B6846
:1019640001221A777B681B689B6903F00303002B31
:1019740003D0786800F098F905E0786800F08BF9F6
:10198400786800F09AF97B6800221A77BB6803F044
:101994000403002B20D0FB6803F00403002B1BD0AE
:1019A4007B681B686FF004021A617B6802221A7755
:1019B4007B681B689B6903F44073002B03D0786831
:1019C40000F072F905E0786800F065F9786800F0D5
:1019D40074F97B6800221A77BB6803F00803002BB4
:1019E40020D0FB6803F00803002B1BD07B681B6826
:1019F4006FF008021A617B6804221A777B681B68FF
:101A0400DB6903F00303002B03D0786800F04CF982
:101A140005E0786800F03FF9786800F04EF97B68DB
:101A240000221A77BB6803F01003002B20D0FB6858
:101A340003F01003002B1BD07B681B686FF01002AF
:101A44001A617B6808221A777B681B68DB6903F4D8
:101A54004073002B03D0786800F026F905E078681D
:101A640000F019F9786800F028F97B6800221A77E9
:101A7400BB6803F00103002B0CD0FB6803F00103E7
:101A8400002B07D07B681B686FF001021A6178682D
:101A9400FEF70EFDBB6803F08003002B0CD0FB683F
:101AA40003F08003002B07D07B681B686FF0800273
:101AB4001A61786800F0A5FABB6803F04003002BB4
:101AC4000CD0FB6803F04003002B07D07B681B6835
:101AD4006FF040021A61786800F0F8F8BB6803F010
:101AE4002003002B0CD0FB6803F02003002B07D04D
:101AF4007B681B686FF020021A61786800F078FA3E
:101B040000BF1037BD4680BD80B584B000AF78609B
:101B140039600023FB737B6893F83C30012B01D1BF
:101B24000223B4E07B68012283F83C207B68022214
:101B340083F83D207B681B689B68BB60BB6823F00F
:101B44007703BB60BB6823F47F43BB607B681B687F
:101B5400BA689A603B681B68B3F5005F3ED0B3F582
:101B6400005F00F28780B3F5805F00F08680B3F5F4
:101B7400805F7FD8702B1AD0702B7BD8602B50D00D
:101B8400602B77D8502B3CD0502B73D8402B58D097
:101B9400402B6FD8302B64D0302B6BD8202B60D0E7
:101BA400202B67D8002B5CD0102B5AD062E07B68C6
:101BB40018683B6899683B685A683B68DB6800F0C2
:101BC4008CF97B681B689B68BB60BB6843F0770338
:101BD400BB607B681B68BA689A604FE07B681868D2
:101BE4003B6899683B685A683B68DB6800F075F9A4
:101BF4007B681B689A687B681B6842F480429A6021
:101C04003CE07B6818683B6859683B68DB681A46A7
:101C140000F0ECF87B681B685021184600F043F98B
:101C24002CE07B6818683B6859683B68DB681A4697
:101C340000F00AF97B681B686021184600F033F94C
:101C44001CE07B6818683B6859683B68DB681A4687
:101C540000F0CCF87B681B684021184600F023F99B
:101C64000CE07B681A683B681B681946104600F054
:101C74001AF903E00123FB7300E000BF7B68012233
:101C840083F83D207B68002283F83C20FB7B1846C8
:101C94001037BD4680BD80B483B000AF786000BF0C
:101CA4000C37BD4680BC704780B483B000AF786009
:101CB40000BF0C37BD4680BC704780B483B000AF12
:101CC400786000BF0C37BD4680BC704780B483B0D9
:101CD40000AF786000BF0C37BD4680BC7047000081
:101CE40080B485B000AF786039607B681B68FB60A6
:101CF4007B68394A934213D07B68384A93420FD0A9
:101D04007B68B3F1804F0BD07B68354A934207D090
:101D14007B68344A934203D07B68334A934208D1A8
:101D2400FB6823F07003FB603B685B68FA6813434D
:101D3400FB607B68284A934213D07B68274A93420E
:101D44000FD07B68B3F1804F0BD07B68244A934259
:101D540007D07B68234A934203D07B68224A93428C
:101D640008D1FB6823F44073FB603B68DB68FA68C6
:101D74001343FB60FB6823F080023B685B691343F9
:101D8400FB607B68FA681A603B689A687B68DA6271
:101D94003B681A687B689A627B680F4A934203D057
:101DA4007B680E4A934203D13B681A697B681A63C5
:101DB4007B6801225A617B681B6903F00103002BD5
:101DC40005D07B681B6923F001027B681A6100BFA0
:101DD4001437BD4680BC7047002C014000340140DC
:101DE4000004004000080040000C004080B487B0AC
:101DF40000AFF860B9607A60FB681B6A7B61FB68BE
:101E04001B6A23F00102FB681A62FB689B693B6151
:101E14003B6923F0F0033B617B681B013A69134380
:101E24003B617B6923F00A037B617A69BB681343D6
:101E34007B61FB683A699A61FB687A691A6200BF40
:101E44001C37BD4680BC704780B487B000AFF860D3
:101E5400B9607A60FB681B6A7B61FB681B6A23F0CC
:101E64001002FB681A62FB689B693B613B6923F4BF
:101E740070433B617B681B033A6913433B617B6995
:101E840023F0A0037B61BB681B017A6913437B6168
:101E9400FB683A699A61FB687A691A6200BF1C3769
:101EA400BD4680BC704780B485B000AF78603960AF
:101EB4007B689B68FB60FB6823F07003FB603A68F7
:101EC400FB68134343F00703FB607B68FA689A607E
:101ED40000BF1437BD4680BC704780B487B000AFE4
:101EE400F860B9607A603B60FB689B687B617B69E2
:101EF40023F47F437B613B681A027B681A43BB6807
:101F040013437A6913437B61FB687A699A6000BF63
:101F14001C37BD4680BC704780B485B000AF786084
:101F240039607B6893F83C30012B01D1022350E0E7
:101F34007B68012283F83C207B68022283F83D20E1
:101F44007B681B685B68FB607B681B689B68BB6085
:101F5400FB6823F07003FB603B681B68FA6813435B
:101F6400FB607B681B68FA685A607B681B681B4AC5
:101F7400934218D07B681B68194A934213D07B683C
:101F84001B68B3F1804F0ED07B681B68154A9342DF
:101F940009D07B681B68144A934204D07B681B6891
:101FA400124A93420CD1BB6823F08003BB603B68A8
:101FB4005B68BA681343BB607B681B68BA689A6045
:101FC4007B68012283F83D207B68002283F83C2053
:101FD400002318461437BD4680BC7047002C0140CE
:101FE400003401400004004000080040000C0040A0
:101FF40080B483B000AF786000BF0C37BD4680BCAE
:10200400704780B483B000AF786000BF0C37BD4622
:1020140080BC704703460244934200D1704703F8E2
:10202400011BF9E770B500260C4D0D4C641BA41080
:10203400A64209D100F01AF800260A4D0A4C641B86
:10204400A410A64205D170BD55F8043B984701364B
:10205400EEE755F8043B98470136F2E7AC20000858
:10206400AC200008AC200008B0200008F8B500BF80
:10207400F8BC08BC9E467047F8B500BFF8BC08BC65
:042084009E467047BD
:102088000000000000000000010203040607080920
:1020980002030405060708090A0B0C0D0E0F1010A1
:0420A8000102000031
:0420AC00090200081D
:0420B000E50100083E
:1020B4000066FFFFFF7E3C1800127A00010000005A
:0820C400100000000100000003
:040000050800098D59
:00000001FF
