:020000040800F2
:1000000000C0002065160008F5110008FB1100086B
:1000100001120008071200080D120008000000007D
:1000200000000000000000000000000013120008A3
:100030001F120008000000002B12000837120008F1
:10004000AD160008AD160008AD160008AD16000884
:10005000AD160008AD160008AD160008AD16000874
:10006000AD160008AD160008AD160008AD16000864
:10007000AD160008AD160008AD160008AD16000854
:10008000AD160008AD160008AD160008AD16000844
:10009000AD160008AD160008AD160008AD16000834
:1000A000AD160008AD160008AD160008AD16000824
:1000B00045120008AD160008AD160008AD16000880
:1000C000AD160008AD160008AD160008AD16000804
:1000D000AD160008AD160008AD160008AD160008F4
:1000E000AD160008AD160008AD160008AD160008E4
:1000F000AD160008AD160008AD160008AD160008D4
:10010000AD160008AD160008AD160008AD160008C3
:10011000AD160008AD160008AD160008AD160008B3
:10012000AD160008AD160008AD160008AD160008A3
:1001300000000000000000000000000000000000BF
:1001400000000000000000000000000000000000AF
:10015000000000000000000000000000000000009F
:10016000000000000000000000000000000000008F
:10017000000000000000000000000000000000007F
:10018000000000000000000000000000000000006F
:10019000000000000000000000000000000000005F
:1001A000000000000000000000000000000000004F
:1001B000000000000000000000000000000000003F
:1001C000000000000000000000000000000000002F
:1001D000000000000000000000000000000000001F
:0401E0005FF8E0F1F3
:1001E40010B5054C237833B9044B13B10448AFF36D
:1001F40000800123237010BD2C00002000000000AB
:10020400A82D000808B5034B1BB103490348AFF3FD
:10021400008008BD0000000030000020A82D000868
:1002240080B500AF012240210A4801F05AFD0122A5
:100234008021084801F055FD01224FF480710548E2
:1002440001F04FFD01224FF40071024801F049FD15
:1002540000BF80BD0008014080B584B000AFF860E5
:10026400B9607A603B60FB68DBB21A46012118482A
:1002740001F037FDBB68DBB21A460221144801F0D5
:1002840030FD7B68DBB21A461021124801F029FDCB
:100294003B68DBB21A4610210D4801F022FDBB6910
:1002A400DBB21A4620210A4801F01BFDFB69DBB2D0
:1002B4001A464021064801F014FD3B6ADBB21A4697
:1002C4008021034801F00DFD00BF1037BD4680BDFD
:1002D400000C01400008014080B586B004AF78608E
:1002E4007B68092B00F29A8001A252F823F000BF28
:1002F4001D03000837030008510300086B030008BE
:10030400850300089F030008B9030008D30300080D
:10031400ED0300080704000801230293002301935E
:10032400002300930023002200210020FFF794FF04
:1003340075E0012302930123019301230093012318
:10034400002200210120FFF787FF68E000230293C9
:1003540001230193002300930023012200210020A4
:10036400FFF77AFF5BE0002302930123019301234B
:1003740000930023002200210020FFF76DFF4EE0D0
:1003840000230293002301930123009301230022FD
:1003940000210120FFF760FF41E0002302930023C6
:1003A4000193012300930023002201210020FFF781
:1003B40053FF34E0002302930023019300230093AE
:1003C4000023002201210020FFF746FF27E001233C
:1003D40002930123019301230093012300220021AE
:1003E4000020FFF739FF1AE0002302930023019352
:1003F400002300930023002200210020FFF72CFF9C
:100404000DE00023029300230193012300930023B2
:10041400002200210020FFF71FFF00E000BF00BF03
:100424000837BD4680BD00BF80B582B000AF78609C
:100434007B68032B40D801A252F823F05104000832
:100444006B04000885040008A1040008FFF7E8FE17
:10045400002240211B4801F044FC1B4B1B6818463A
:10046400FFF73AFF29E0FFF7DBFE00228021154861
:1004740001F037FC144B5B681846FFF72DFF1CE0B6
:10048400FFF7CEFE00224FF480710E4801F029FCE4
:100494000D4B9B681846FFF71FFF0EE0FFF7C0FEE9
:1004A40000224FF40071074801F01BFC064BDB6887
:1004B4001846FFF711FF00E000BF00BF0837BD4634
:1004C40080BD00BF000801400000002080B483B05C
:1004D40000AF78607B68134A82FB03129210DB172B
:1004E400D11A104B83FB01239A10CB17D21A13464F
:1004F4009B0013445B00CA1A0B4B1A607968094BC2
:1005040083FB01239A10CB17D21A13469B00134482
:100514005B00CA1A044B5A6000BF0C37BD4680BC4E
:10052400704700BF676666660000002080B483B031
:1005340000AF78607B68134A82FB03129210DB17CA
:10054400D11A104B83FB01239A10CB17D21A1346EE
:100554009B0013445B00CA1A0B4B9A607968094BE1
:1005640083FB01239A10CB17D21A13469B00134422
:100574005B00CA1A044BDA6000BF0C37BD4680BC6E
:10058400704700BF676666660000002080B500AF54
:10059400924B1B68013B0D2B00F2798101A252F8AA
:1005A40023F000BFE1050008930800089308000841
:1005B40093080008930800089308000893080008AB
:1005C4009308000893080008930800082F06000801
:1005D400BD06000855070008FD0700087F4B0B22E5
:1005E4001A607F4B1B68013B7E4A13607E4B1B687D
:1005F400013B7E4A13607B4B1B681846FFF766FF7E
:100604007A4B1B681846FFF791FF754B1B684FF434
:100614007A7202FB03F31946002000F021FE4FF426
:100624007A71012000F01CFE3AE100F067FE704B85
:100634001B68012B11D1694B0C221A606D4B1B688E
:100644004FF47A7202FB03F31946002000F008FE0F
:10065400684B1B68013B634A1360654B5B68012B65
:1006640018D1604B1B681846FFF730FF5F4B1B68BF
:100674001846FFF75BFF5B4B1B68013B594A13604D
:100684005A4B1B68013B594A13604FF47A7101209D
:1006940000F0E6FD002000F05DF90346002B00F0B9
:1006A400F8804E4B02221A6042F21071022000F0D0
:1006B400D7FD00F02DFFECE000F044FE4C4B1B682E
:1006C400012B16D1454B0D221A60454B1B684FF484
:1006D4007A7202FB03F31946002000F0C1FD424B7D
:1006E4001B68013B3F4A13603D4B1B68013B3F4A7B
:1006F40013603F4B5B68012B18D13A4B1B681846BB
:10070400FFF7E4FE394B1B681846FFF70FFF354B24
:100714001B68013B334A1360344B1B68013B334A6B
:1007240013604FF47A71012000F09AFD002000F06C
:1007340011F90346002B00F0AE80284B02221A6008
:1007440042F21071022000F08BFD00F0E1FEA2E005
:1007540000F01CFE264B1B68012B11D11F4B0E22EF
:100764001A60244B1B684FF47A7202FB03F3194698
:10077400002000F075FD1F4B1B68013B1B4A1360F2
:100784001B4B5B68012B18D1164B1B681846FFF7EF
:100794009DFE164B1B681846FFF7C8FE114B1B68DD
:1007A400013B104A1360114B1B68013B0F4A136055
:1007B4004FF47A71012000F053FD002000F0CAF8D4
:1007C4000346002B69D0054B02221A6042F21071D5
:1007D400022000F045FD00F09BFE5EE09001002049
:1007E4002000002048000020180000204C000020B9
:1007F400F00100201C00002000F0ECFD294B1B68D8
:10080400012B16D1284B0B221A60284B1B684FF47E
:100814007A7202FB03F31946002000F021FD234BFA
:100824001B68013B224A1360224B1B68013B224A8E
:1008340013601C4B5B68012B18D11D4B1B681846B9
:10084400FFF744FE1C4B1B681846FFF76FFE184B5E
:100854001B68013B164A1360174B1B68013B164A81
:1008640013604FF47A71012000F0FAFC002000F0CC
:1008740071F80346002B12D00B4B02221A6042F28D
:100884001071022000F0ECFC00F042FE07E000BF13
:1008940006E000BF04E000BF02E000BF00E000BFCC
:1008A40000BF80BDF0010020900100202000002046
:1008B40048000020180000204C00002080B483B0C1
:1008C40000AF00237B602BE01A4A7B68002142F8CA
:1008D4002310194A7B68002142F82310174A7B68C9
:1008E400002142F82310164A7B68002142F82310A5
:1008F400144A7B684FF4FA7142F82310124A7B6859
:10090400002142F82310114A7B68002142F8231089
:100914000F4A7B68002142F823107B6801337B6017
:100924007B68092BD0DD00BF00BF0C37BD4680BCFF
:10093400704700BF5000002078000020A000002075
:10094400C8000020F0000020180100204001002011
:100954006801002080B483B000AF7860094A7B68E6
:1009640052F82330012B06D1064A7B68002142F855
:100974002310012300E0002318460C37BD4680BC39
:10098400704700BF6801002080B582B000AF00232B
:100994007B6012E04B4A7B6852F823204A497B680B
:1009A40041F82320494A7B6852F8232045497B6853
:1009B40041F823207B6801337B607B68092BE9DDE8
:1009C4004FF48071424801F075F903461A463F4BD3
:1009D4001A604FF400713E4801F06CF903461A4660
:1009E4003A4B5A604FF48061394801F063F9034689
:1009F4001A46364B9A6000233B605AE0314A3B6802
:100A040052F8232031493B6851F823309A424DD1A2
:100A14002C4A3B6852F823202B493B6851F8233079
:100A24009A4243D1284A3B6852F8232029493B681B
:100A340051F823309A4219D0234A3B6852F82320B4
:100A440024493B6841F82320224A3B6852F823306A
:100A5400012B2BD1204A3B684FF4FA7142F8231042
:100A64001E4A3B68012142F823101FE01A4A3B68E2
:100A740052F823305A1E18493B6841F82320164A7D
:100A84003B6852F82330002B10D1134A3B684FF4D3
:100A9400FA7142F823100F4A3B6852F82330012BB5
:100AA40004D10E4A3B68012142F823103B6801330C
:100AB4003B603B68092BA1DD00BF00BF0837BD4682
:100AC40080BD00BF78000020A0000020500000205E
:100AD400000C0140C8000020F00000206801002044
:100AE40080B500AF1E4B1B68022B20D0022B30DCDC
:100AF400002B02D0012B04D02BE0194B01221A60E9
:100B04002CE00020FFF726FF0346002B23D0144BD4
:100B140002221A6042F21071022000F0A1FB4FF48D
:100B2400FA71032000F09CFB00F0F2FC13E00220B9
:100B3400FFF710FF0346002B03D0094B01221A6074
:100B44000CE0084B9B68012B07D1054B01221A606E
:100B540004E000BF02E000BF00E000BF00BF80BDB2
:100B640090010020F001002080B500AF00F09EFD50
:100B740000F028F800F0AEF800F060F80E4801F03C
:100B84000FFDFFF79BFE4FF47A71042000F068FB21
:100B9400FFF7FCFC00F044F9FFF7A2FF074B1B69C9
:100BA400012BF5D14FF47A71042000F059FB802118
:100BB400034801F0AEF8EBE794010020F0010020B7
:100BC4000010014080B590B000AF07F1180328224F
:100BD4000021184602F0BAF83B1D00221A605A6040
:100BE4009A60DA601A610223BB610123BB6210239D
:100BF400FB6200237B6307F11803184601F0A2F897
:100C04000346002B01D000F005F90F237B6000237D
:100C1400BB600023FB6000233B6100237B613B1D21
:100C24000021184601F010FB0346002B01D000F010
:100C3400F1F800BF4037BD4680BD000080B586B0E6
:100C440000AF07F1080300221A605A609A60DA6064
:100C54003B4600221A605A601D4B4FF080421A60D6
:100C64001B4B40F21F325A60194B00229A60184BFA
:100C74000922DA60164B00221A61154B00229A6190
:100C8400134801F03DFC0346002B01D000F0C2F8EC
:100C94004FF48053BB6007F1080319460C4801F078
:100CA400CFFD0346002B01D000F0B4F800233B60D5
:100CB40000237B603B461946054801F0C9FF034603
:100CC400002B01D000F0A6F800BF1837BD4680BD48
:100CD4009401002080B588B000AF07F11003002212
:100CE4001A605A609A60DA60374B9B69364A43F05F
:100CF40010039361344B9B6903F01003FB60FB68A2
:100D0400314B9B69304A43F0040393612E4B9B693A
:100D140003F00403BB60BB682B4B9B692A4A43F076
:100D240008039361284B9B6903F008037B607B688D
:100D34000022BF21254800F0D4FF00224FF4747133
:100D4400234800F0CEFF0022F321224800F0C9FF1F
:100D5400BF233B6101237B610023BB610223FB6151
:100D640007F110031946194800F010FE4FF474738C
:100D74003B6101237B610023BB610223FB6107F11B
:100D840010031946124800F001FEF3233B610123CE
:100D94007B610023BB610223FB6107F11003194649
:100DA4000C4800F0F3FD4FF4E0633B6100237B61EA
:100DB4000023BB6107F110031946064800F0E6FD65
:100DC40000BF2037BD4680BD001002400010014026
:100DD40000080140000C014080B582B000AF78608B
:100DE40000F05CFAFFF7D0FD094B1B685A1C084958
:100DF4000A601846FFF718FB054B1B68032B02DD3E
:100E0400034B00221A6000BF0837BD4680BD00BFF7
:100E1400DC01002080B400AF72B600BFFEE7000022
:100E240080B500AFBB4B1B68023B152B00F26C81F5
:100E340001A252F823F000BF950E00080D1100081E
:100E44000D1100080D1100080D1100080D11000806
:100E54000D1100080D1100080D1100080D110008F6
:100E64000D1100080D1100080D1100080D110008E6
:100E74000D1100080D1100080D1100080D110008D6
:100E84000D110008070F0008B30F00085D100008DB
:100E9400A14B1B681846FFF719FB0020FFF746FB20
:100EA4009E4BDB68012B06D14FF4FA71032000F04E
:100EB400D7F900F0B7FB0020FFF74CFD0346002BE9
:100EC40000F02481934B15221A60934B02221A607E
:100ED400934B1B68934A1360934B1B68934A1360AC
:100EE400934B1B68934A13608B4B1B681846FFF7A0
:100EF400EDFA8B4B1B681846FFF718FB00F008FB54
:100F040004E1864BDB68012B06D14FF4FA71032010
:100F140000F0A6F900F020FB0020FFF71BFD0346BC
:100F2400002B21D07B4B16221A607B4B03221A60C4
:100F34007C4B1B68184600F0C1FA7C4B1B681846B2
:100F440000F0CAFA7B4B1B68184600F0D3FA724BC8
:100F54001B681846FFF7BAFA734B1B681846FFF76D
:100F6400E5FA00F0D5FAEAE00120FFF7F3FC0346C6
:100F7400002B07D000F052FA694B1B681846FFF7A4
:100F8400D5FADCE00220FFF7E5FC0346002B00F075
:100F9400BF80604B02221A6042F21071022000F0FE
:100FA4005FF900F0B5FA5C4B00221A60C7E05B4BB6
:100FB400DB68012B06D14FF4FA71032000F050F9DD
:100FC40000F0ECFA0020FFF7C5FC0346002B21D00B
:100FD400504B17221A60504B04221A60514B1B6865
:100FE400184600F06BFA514B1B68184600F074FA6F
:100FF400504B1B68184600F07DFA474B1B68184697
:10100400FFF764FA4A4B1B681846FFF78FFA00F0A3
:101014007FFA94E00120FFF79DFC0346002B07D0E4
:1010240000F02CFA404B1B681846FFF77FFA86E065
:101034000220FFF78FFC0346002B7DD0354B0222A4
:101044001A6042F21071022000F00AF900F060FA0E
:10105400314B00221A6072E0304BDB68012B06D161
:101064004FF4FA71032000F0FBF800F0B9FA002005
:10107400FFF770FC0346002B24D0264B02221A6093
:1010840042F21071022000F0EBF800F041FA224B1A
:1010940000221A60234B1B68184600F00FFA234BFA
:1010A4001B68184600F018FA224B1B68184600F01B
:1010B40021FA194B1B681846FFF708FA0020FFF7BE
:1010C40035FA3CE00120FFF745FC0346002B07D02E
:1010D40000F0BCF9164B1B681846FFF727FA2EE000
:1010E4000220FFF737FC0346002B27D0094B0222CE
:1010F4001A6042F21071022000F0B2F800F008FA0F
:10110400054B00221A601AE000BF18E000BF16E089
:1011140000BF14E090010020E0010020F001002055
:1011240018000020E40100201C000020E801002039
:1011340020000020EC01002000BF00E000BF00BF41
:1011440080BD00BF80B485B000AF154B9B69144AC5
:1011540043F001039361124B9B6903F00103BB60ED
:10116400BB680F4BDB690E4A43F08053D3610C4BD1
:10117400DB6903F080537B607B680A4B5B68FB6030
:10118400FB6823F0E063FB60FB6843F00073FB60E3
:10119400044AFB68536000BF1437BD4680BC7047E7
:1011A400001002400000014080B584B000AF7860B8
:1011B4007B681B68B3F1804F13D10C4BDB690B4A7E
:1011C40043F00103D361094BDB6903F00103FB60C6
:1011D400FB68002200211C2000F0A1FB1C2000F071
:1011E400BAFB00BF1037BD4680BD00BF00100240EF
:1011F40080B400AFFEE780B400AFFEE780B400AF78
:10120400FEE780B400AFFEE780B400AFFEE780B431
:1012140000AF00BFBD4680BC704780B400AF00BFC4
:10122400BD4680BC704780B400AF00BFBD4680BCE3
:10123400704780B500AF00F07FFA00BF80BD0000AA
:1012440080B500AF024801F00BFA00BF80BD00BFBB
:101254009401002080B400AF00BFBD4680BC70473D
:1012640080B483B000AF78603960094A7B6800219C
:1012740042F82310074B1B683A6892FBF3F20649C5
:101284007B6841F8232000BF0C37BD4680BC704703
:10129400F0010020140000201802002080B483B064
:1012A40000AF00237B601CE0124A7B6852F82330B5
:1012B400002B13DB0F4A7B6852F823305A1E0D496A
:1012C4007B6841F823200B4A7B6852F82330002BBB
:1012D40004DC094A7B68012142F823107B6801334E
:1012E4007B607B68092BDFDD00BF00BF0C37BD4688
:1012F40080BC704718020020F001002080B500AFC8
:10130400002208210E4800F0ECFC002210210C48B9
:1013140000F0E7FC01222021094800F0E2FC012250
:101324000121074800F0DDFC00220221044800F0FE
:10133400D8FC00220421024800F0D3FC00BF80BD89
:101344000010014080B500AF002208210E4800F0D3
:10135400C8FC012210210C4800F0C3FC002220210B
:10136400094800F0BEFC01220121074800F0B9FC45
:1013740000220221044800F0B4FC002204210248A7
:1013840000F0AFFC00BF80BD0010014080B500AF8D
:10139400012208210E4800F0A4FC002210210C4870
:1013A40000F09FFC00222021094800F09AFC002252
:1013B4000121074800F095FC00220221044800F0B6
:1013C40090FC01220421024800F08BFC00BF80BD88
:1013D4000010014080B500AF012208210E4800F042
:1013E40080FC002210210C4800F07BFC002220210C
:1013F400094800F076FC00220121074800F071FC46
:1014040001220221044800F06CFC0022042102485D
:1014140000F067FC00BF80BD0010014080B400AF45
:10142400084B1B68622B09DC064B1B680133054A19
:101434001360054B1B680133034A136000BFBD46AC
:1014440080BC7047180000202000002080B400AF4A
:10145400084B1B68622B09DC074B1B680133064AE7
:101464001360044B1B680133024A136000BFBD467E
:1014740080BC7047180000202000002080B400AF1A
:101484000B4B1B68622B0FDC0A4B1A680A4B1B6858
:101494009A4209DA074B1B680133064A1360044B6E
:1014A4001B680133024A136000BFBD4680BC70470D
:1014B400180000201C0000202000002080B483B00D
:1014C40000AF7860034A7B68136000BF0C37BD46E9
:1014D40080BC70471800002080B483B000AF7860EF
:1014E400034A7B68136000BF0C37BD4680BC70475D
:1014F4001C00002080B483B000AF7860034A7B688E
:10150400136000BF0C37BD4680BC7047200000202C
:1015140080B500AF002208210E4800F0E2FB002253
:1015240010210C4800F0DDFB00222021094800F0C6
:10153400D8FB00220121074800F0D3FB002202213E
:10154400044800F0CEFB00220421024800F0C9FB4D
:1015540000BF80BD0010014080B500AF08210E48D7
:1015640000F0D7FB01210C4800F0D3FB002210212E
:10157400094800F0B6FB00222021074800F0B1FB27
:1015840000220221044800F0ACFB0022042102489E
:1015940000F0A7FB00BF80BD0010014080B500AF84
:1015A40010210E4800F0B5FB02210C4800F0B1FBFD
:1015B40000220821094800F094FB0022202107485A
:1015C40000F08FFB00220121044800F08AFB002276
:1015D4000421024800F085FB00BF80BD00100140DB
:1015E40080B500AF20210E4800F093FB04210C4885
:1015F40000F08FFB00220821094800F072FB002252
:101604001021074800F06DFB00220121044800F07E
:1016140068FB00220221024800F063FB00BF80BD8A
:101624000010014080B500AF08210C4800F071FBA8
:1016340001210A4800F06DFB1021084800F069FB05
:101644000221064800F065FB2021044800F061FBFC
:101654000421024800F05DFB00BF80BD0010014082
:10166400FFF7F8FD0B480C490C4A002302E0D4585C
:10167400C4500433C4188C42F9D3094A094C0023DA
:1016840001E013600432A242FBD301F067FBFFF7D1
:101694006BFA7047000000202C000020EC2D00089D
:1016A4002C00002044020020FEE7000080B500AFBB
:1016B400084B1B68074A43F010031360032000F033
:1016C40023F90F2000F008F8FFF73CFD002318462B
:1016D40080BD00BF0020024080B582B000AF7860BA
:1016E400124B1A68124B1B7819464FF47A73B3FBEA
:1016F400F1F3B2FBF3F3184600F03BF90346002B79
:1017040001D001230EE07B680F2B0AD800227968F0
:101714004FF0FF3000F003F9064A7B6813600023A2
:1017240000E0012318460837BD4680BD10000020A4
:10173400280000202400002080B400AF054B1B7853
:101744001A46054B1B681344034A136000BFBD4689
:1017540080BC7047280000204002002080B400AF05
:10176400024B1B681846BD4680BC704740020020EF
:1017740080B485B000AF78607B6803F00703FB603A
:101784000C4BDB68BB60BA684FF6FF031340BB60C9
:10179400FB681A02BB68134343F0BF6343F400338E
:1017A400BB60044ABB68D36000BF1437BD4680BC2D
:1017B400704700BF00ED00E080B400AF044BDB686D
:1017C4001B0A03F007031846BD4680BC704700BFE0
:1017D40000ED00E080B483B000AF0346FB7197F9DD
:1017E4000730002B0BDBFB7903F01F02064997F946
:1017F40007305B09012000FA02F241F8232000BF00
:101804000C37BD4680BC704700E100E080B483B073
:1018140000AF03463960FB7197F90730002B0ADBF0
:101824003B68DAB20C4997F907301201D2B20B4483
:1018340083F800230AE03B68DAB20849FB7903F035
:101844000F03043B1201D2B20B441A7600BF0C37CB
:10185400BD4680BC704700BF00E100E000ED00E041
:1018640080B489B000AFF860B9607A60FB6803F0B7
:101874000703FB61FB69C3F10703042B28BF04239F
:10188400BB61FB690433062B02D9FB69033B00E00F
:1018940000237B614FF0FF32BB6902FA03F3DA43A2
:1018A400BB681A407B699A404FF0FF317B6901FAAB
:1018B40003F3D9437B680B40134318462437BD46D2
:1018C40080BC704780B582B000AF78607B68013B14
:1018D400B3F1807F01D301230FE00A4A7B68013B07
:1018E40053600F214FF0FF30FFF790FF054B0022AC
:1018F4009A60044B07221A60002318460837BD4635
:1019040080BD00BF10E000E080B582B000AF786019
:101914007868FFF72DFF00BF0837BD4680BD80B54E
:1019240086B000AF0346B9607A60FB7300237B6125
:10193400FFF742FF78617A68B9687869FFF790FF2A
:10194400024697F90F3011461846FFF75FFF00BFB4
:101954001837BD4680BD80B582B000AF0346FB7129
:1019640097F907301846FFF735FF00BF0837BD4623
:1019740080BD80B582B000AF78607868FFF7A2FFC1
:10198400034618460837BD4680BD000080B48BB0BE
:1019940000AF7860396000237B6200233B6279E109
:1019A40001227B6A02FA03F3FB613B681B68FA6954
:1019B4001340BB61BA69FB699A4240F068813B6895
:1019C4005B68964A93425ED0944A934275D8944A8F
:1019D400934258D0924A93426FD8924A934252D03B
:1019E400904A934269D8904A93424CD08E4A93428B
:1019F40063D88E4A934246D08C4A93425DD8122BC8
:101A04002AD8122B59D801A252F823F08B1A0008B5
:101A1400651A0008771A0008B91A0008BF1A0008E6
:101A2400BF1A0008BF1A0008BF1A0008BF1A00082E
:101A3400BF1A0008BF1A0008BF1A0008BF1A00081E
:101A4400BF1A0008BF1A0008BF1A0008BF1A00080E
:101A54006D1A0008811A0008754A934213D02CE0CD
:101A64003B68DB683B6229E03B68DB6804333B622C
:101A740024E03B68DB6808333B621FE03B68DB68BB
:101A84000C333B621AE03B689B68002B02D10423B1
:101A94003B6213E03B689B68012B05D108233B6242
:101AA4007B68FA691A6109E008233B627B68FA697A
:101AB4005A6103E000233B6200E000BFBB69FF2BD7
:101AC40001D87B6801E07B6804337B61BB69FF2B31
:101AD40002D87B6A9B0002E07B6A083B9B003B6167
:101AE4007B691A680F213B6901FA03F3DB431A404F
:101AF400396A3B6901FA03F31A437B691A603B684C
:101B04005B6803F08053002B00F0C180494B9B6954
:101B1400484A43F001039361464B9B6903F0010378
:101B2400BB60BB68444A7B6A9B08023352F823308B
:101B3400FB607B6A03F003039B000F2202FA03F3AA
:101B4400DB43FA681340FB607B683C4A93421FD036
:101B54007B683B4A934219D07B683A4A934213D03C
:101B64007B68394A93420DD07B68384A934207D048
:101B74007B68374A934201D105230AE0062308E033
:101B8400042306E0032304E0022302E0012300E02F
:101B940000237A6A02F0030292009340FA68134326
:101BA400FB6025497B6A9B080233FA6841F82320CD
:101BB4003B685B6803F48013002B06D0254B9A68BE
:101BC4002449BB6913438B6006E0224B9A68BB69C6
:101BD400DB43204913408B603B685B6803F40013CC
:101BE400002B06D01B4BDA681A49BB691343CB6040
:101BF40006E0184BDA68BB69DB4316491340CB6037
:101C04003B685B6803F40033002B25D0114B5A6802
:101C14001049BB6913434B6025E000BF000032103C
:101C240000003110000022100000211000001210EA
:101C340000001110001002400000014000080140A3
:101C4400000C014000100140001401400018014044
:101C5400001C014000040140154B5A68BB69DB437A
:101C6400134913404B603B685B6803F48033002BDB
:101C740006D00F4B1A680E49BB6913430B6006E08C
:101C84000B4B1A68BB69DB43094913400B607B6A41
:101C940001337B623B681A687B6A22FA03F3002BE8
:101CA4007FF47EAE00BF00BF2C37BD4680BC7047BA
:101CB4000004014080B485B000AF78600B467B809F
:101CC4007B689A687B881340002B02D00123FB7346
:101CD40001E00023FB73FB7B18461437BD4680BC30
:101CE400704780B483B000AF78600B467B801346A6
:101CF4007B707B78002B03D07A887B681A6103E0C1
:101D04007B881A047B681A6100BF0C37BD4680BC0F
:101D1400704780B485B000AF78600B467B807B68E9
:101D2400DB68FB607A88FB6813401A04FB68D943BC
:101D34007B880B401A437B681A6100BF1437BD4689
:101D440080BC704780B586B000AF78607B68002B9C
:101D540001D1012372E27B681B6803F00103002BAD
:101D640000F08780924B5B6803F00C03042B0CD0CB
:101D74008F4B5B6803F00C03082B12D18C4B5B6810
:101D840003F48033B3F5803F0BD1894B1B6803F414
:101D94000033002B6CD07B685B68002B68D1012377
:101DA4004CE27B685B68B3F5803F06D1804B1B68CF
:101DB4007F4A43F4803313602EE07B685B68002B1A
:101DC4000CD17B4B1B687A4A23F480331360784B25
:101DD4001B68774A23F4802313601DE07B685B68EB
:101DE400B3F5A02F0CD1724B1B68714A43F48023C6
:101DF40013606F4B1B686E4A43F4803313600BE02F
:101E04006B4B1B686A4A23F480331360684B1B686E
:101E1400674A23F4802313607B685B68002B13D02C
:101E2400FFF79CFC386108E0FFF798FC02463B6929
:101E3400D31A642B01D9032300E25D4B1B6803F41E
:101E44000033002BF0D014E0FFF788FC386108E081
:101E5400FFF784FC02463B69D31A642B01D90323A0
:101E6400ECE1534B1B6803F40033002BF0D100E08A
:101E740000BF7B681B6803F00203002B63D04C4B4C
:101E84005B6803F00C03002B0BD0494B5B6803F039
:101E94000C03082B1CD1464B5B6803F48033002BE6
:101EA40016D1434B1B6803F00203002B05D07B685B
:101EB4001B69012B01D00123C0E13D4B1B6823F0BA
:101EC400F8027B685B69DB00394913430B603AE035
:101ED4007B681B69002B20D0364B01221A60FFF768
:101EE4003DFC386108E0FFF739FC02463B69D31A30
:101EF400022B01D90323A1E12D4B1B6803F002033C
:101F0400002BF0D02A4B1B6823F0F8027B685B6936
:101F1400DB00274913430B6015E0264B00221A60AF
:101F2400FFF71CFC386108E0FFF718FC02463B6928
:101F3400D31A022B01D9032380E11D4B1B6803F044
:101F44000203002BF0D17B681B6803F00803002B0D
:101F54003AD07B689B69002B19D0174B01221A6079
:101F6400FFF7FCFB386108E0FFF7F8FB02463B692A
:101F7400D31A022B01D9032360E10D4B5B6A03F0F2
:101F84000203002BF0D0012000F09CFA1CE00A4B65
:101F940000221A60FFF7E2FB38610FE0FFF7DEFB77
:101FA40002463B69D31A022B08D9032346E100BF3A
:101FB400001002400000424280044242924B5B6A9D
:101FC40003F00203002BE9D17B681B6803F00403D0
:101FD400002B00F0A6800023FB758B4BDB6903F01C
:101FE4008053002B0DD1884BDB69874A43F0805323
:101FF400D361854BDB6903F08053BB60BB6801236D
:10200400FB75824B1B6803F48073002B18D17F4B44
:102014001B687E4A43F480731360FFF79FFB3861AB
:1020240008E0FFF79BFB02463B69D31A642B01D9F6
:10203400032303E1754B1B6803F48073002BF0D07A
:102044007B68DB68012B06D16F4B1B6A6E4A43F039
:10205400010313622DE07B68DB68002B0CD16A4B13
:102064001B6A694A23F001031362674B1B6A664AC1
:1020740023F0040313621CE07B68DB68052B0CD19E
:10208400614B1B6A604A43F0040313625E4B1B6A94
:102094005D4A43F0010313620BE05B4B1B6A5A4A2F
:1020A40023F001031362584B1B6A574A23F00403BD
:1020B40013627B68DB68002B15D0FFF74FFB386198
:1020C4000AE0FFF74BFB02463B69D31A41F2883220
:1020D400934201D90323B1E04B4B1B6A03F0020383
:1020E400002BEED014E0FFF739FB38610AE0FFF76C
:1020F40035FB02463B69D31A41F28832934201D937
:1021040003239BE0404B1B6A03F00203002BEED138
:10211400FB7D012B05D13C4BDB693B4A23F080530B
:10212400D3617B68DB69002B00F08780364B5B68EA
:1021340003F00C03082B61D07B68DB69022B46D1CA
:10214400334B00221A60FFF709FB386108E0FFF700
:1021540005FB02463B69D31A022B01D903236DE028
:10216400294B1B6803F00073002BF0D17B681B6ABA
:10217400B3F5803F08D1244B5B6823F400327B68BD
:102184009B68214913434B601F4B5B6823F4741213
:102194007B68196A7B685B6A0B431B4913434B607A
:1021A4001B4B01221A60FFF7D9FA386108E0FFF7E8
:1021B400D5FA02463B69D31A022B01D903233DE029
:1021C400114B1B6803F00073002BF0D035E0104B6B
:1021D40000221A60FFF7C2FA386108E0FFF7BEFA7E
:1021E40002463B69D31A022B01D9032326E0064B8E
:1021F4001B6803F00073002BF0D11EE07B68DB69E1
:10220400012B07D1012319E00010024000700040A7
:10221400600042420B4B5B68FB60FB6803F4803256
:102224007B681B6A9A4206D1FB6803F470127B68D0
:102234005B6A9A4201D0012300E000231846183754
:10224400BD4680BD0010024080B584B000AF786008
:1022540039607B68002B01D10123D0E06A4B1B68F5
:1022640003F007033A689A4210D9674B1B6823F0BE
:10227400070265493B6813430B60634B1B6803F01B
:1022840007033A689A4201D00123B8E07B681B68CF
:1022940003F00203002B20D07B681B6803F00403C7
:1022A400002B05D0594B5B68584A43F4E0635360F4
:1022B4007B681B6803F00803002B05D0534B5B6855
:1022C400524A43F460535360504B5B6823F0F0026E
:1022D4007B689B684D4913434B607B681B6803F024
:1022E4000103002B40D07B685B68012B07D1474B6F
:1022F4001B6803F40033002B15D101237FE07B68B6
:102304005B68022B07D1414B1B6803F00073002B61
:1023140009D1012373E03D4B1B6803F00203002B3A
:1023240001D101236BE0394B5B6823F003027B6826
:102334005B68364913434B60FFF710FAF8600AE014
:10234400FFF70CFA0246FB68D31A41F28832934233
:1023540001D9032353E02D4B5B6803F00C027B6827
:102364005B689B009A42EBD1274B1B6803F0070381
:102374003A689A4210D2244B1B6823F00702224980
:102384003B6813430B60204B1B6803F007033A6858
:102394009A4201D0012332E07B681B6803F00403F6
:1023A400002B08D0194B5B6823F4E0627B68DB6880
:1023B400164913434B607B681B6803F00803002B2A
:1023C40009D0124B5B6823F460527B681B69DB0005
:1023D4000E4913434B6000F021F802460B4B5B6837
:1023E4001B0903F00F030A49CB5C22FA03F3094AE1
:1023F4001360094B1B681846FFF76EF90023184653
:102404001037BD4680BD00BF0020024000100240CE
:10241400C02D0008100000202400002080B487B0E4
:1024240000AF0023FB600023BB6000237B6100231B
:102434007B6000233B611E4B5B68FB60FB6803F021
:102444000C03042B02D0082B03D027E0194B3B616B
:1024540027E0FB689B0C03F00F03174AD35C7B60F7
:10246400FB6803F48033002B10D0114B5B685B0CCA
:1024740003F00103114AD35CBB607B680D4A03FB84
:1024840002F2BB68B2FBF3F37B6104E07B680C4AA5
:1024940002FB03F37B617B693B6102E0054B3B611B
:1024A40000BF3B6918461C37BD4680BC704700BF5F
:1024B4000010024000127A00D02D0008E02D000820
:1024C40000093D0080B485B000AF78600A4B1B68FA
:1024D4000A4AA2FB03235B0A7A6802FB03F3FB604C
:1024E40000BFFB685A1EFA60002BF9D100BF00BF81
:1024F4001437BD4680BC704710000020D34D6210D5
:1025040080B582B000AF78607B68002B01D10123D5
:1025140041E07B6893F83D30DBB2002B06D17B6849
:10252400002283F83C207868FEF73EFE7B68022296
:1025340083F83D207B681A687B680433194610468B
:1025440000F06AFA7B68012283F846207B68012246
:1025540083F83E207B68012283F83F207B680122B8
:1025640083F840207B68012283F841207B680122A4
:1025740083F842207B68012283F843207B68012290
:1025840083F844207B68012283F845207B6801227C
:1025940083F83D20002318460837BD4680BD00005F
:1025A40080B485B000AF78607B6893F83D30DBB2CF
:1025B400012B01D0012344E07B68022283F83D20F3
:1025C4007B681B68DA687B681B6842F00102DA608A
:1025D4007B681B681D4A934218D07B681B681C4AA1
:1025E400934213D07B681B68B3F1804F0ED07B6895
:1025F4001B68184A934209D07B681B68164A9342A9
:1026040004D07B681B68154A934211D17B681B6810
:102614009B6803F00703FB60FB68062B10D07B6804
:102624001B681A687B681B6842F001021A6007E0A5
:102634007B681B681A687B681B6842F001021A6099
:10264400002318461437BD4680BC7047002C014057
:10265400003401400004004000080040000C004029
:1026640080B584B000AF78607B681B68DB68FB6072
:102674007B681B681B69BB60BB6803F00203002B0B
:1026840020D0FB6803F00203002B1BD07B681B687F
:102694006FF002021A617B6801221A777B681B685B
:1026A4009B6903F00303002B03D0786800F098F9CA
:1026B40005E0786800F08BF9786800F09AF97B6897
:1026C40000221A77BB6803F00403002B20D0FB68B8
:1026D40003F00403002B1BD07B681B686FF004021B
:1026E4001A617B6802221A777B681B689B6903F472
:1026F4004073002B03D0786800F072F905E0786825
:1027040000F065F9786800F074F97B6800221A77A4
:10271400BB6803F00803002B20D0FB6803F0080318
:10272400002B1BD07B681B686FF008021A617B6862
:1027340004221A777B681B68DB6903F00303002B10
:1027440003D0786800F04CF905E0786800F03FF9B0
:10275400786800F04EF97B6800221A77BB6803F0B2
:102764001003002B20D0FB6803F01003002B1BD0B8
:102774007B681B686FF010021A617B6808221A7765
:102784007B681B68DB6903F44073002B03D0786813
:1027940000F026F905E0786800F019F9786800F08F
:1027A40028F97B6800221A77BB6803F00103002B29
:1027B4000CD0FB6803F00103002B07D07B681B6877
:1027C4006FF001021A617868FEF706FBBB6803F03C
:1027D4008003002B0CD0FB6803F08003002B07D090
:1027E4007B681B686FF080021A61786800F0A5FAB4
:1027F400BB6803F04003002B0CD0FB6803F04003DC
:10280400002B07D07B681B686FF040021A61786860
:1028140000F0F8F8BB6803F02003002B0CD0FB6831
:1028240003F02003002B07D07B681B686FF02002A5
:102834001A61786800F078FA00BF1037BD4680BD91
:1028440080B584B000AF786039600023FB737B6887
:1028540093F83C30012B01D10223B4E07B680122C0
:1028640083F83C207B68022283F83D207B681B6848
:102874009B68BB60BB6823F07703BB60BB6823F431
:102884007F43BB607B681B68BA689A603B681B68BF
:10289400B3F5005F3ED0B3F5005F00F28780B3F577
:1028A400805F00F08680B3F5805F7FD8702B1AD0EC
:1028B400702B7BD8602B50D0602B77D8502B3CD01A
:1028C400502B73D8402B58D0402B6FD8302B64D06A
:1028D400302B6BD8202B60D0202B67D8002B5CD0FA
:1028E400102B5AD062E07B6818683B6899683B6893
:1028F4005A683B68DB6800F08CF97B681B689B684E
:10290400BB60BB6843F07703BB607B681B68BA6835
:102914009A604FE07B6818683B6899683B685A681E
:102924003B68DB6800F075F97B681B689A687B6814
:102934001B6842F480429A603CE07B6818683B68FC
:1029440059683B68DB681A4600F0ECF87B681B6842
:102954005021184600F043F92CE07B6818683B6866
:1029640059683B68DB681A4600F00AF97B681B6803
:102974006021184600F033F91CE07B6818683B6856
:1029840059683B68DB681A4600F0CCF87B681B6822
:102994004021184600F023F90CE07B681A683B6874
:1029A4001B681946104600F01AF903E00123FB7373
:1029B40000E000BF7B68012283F83D207B68002291
:1029C40083F83C20FB7B18461037BD4680BD80B49D
:1029D40083B000AF786000BF0C37BD4680BC704741
:1029E40080B483B000AF786000BF0C37BD4680BCB4
:1029F400704780B483B000AF786000BF0C37BD4629
:102A040080BC704780B483B000AF786000BF0C37DF
:102A1400BD4680BC7047000080B485B000AF7860CC
:102A240039607B681B68FB607B68394A934213D02A
:102A34007B68384A93420FD07B68B3F1804F0BD048
:102A44007B68354A934207D07B68344A934203D06B
:102A54007B68334A934208D1FB6823F07003FB6020
:102A64003B685B68FA681343FB607B68284A9342BF
:102A740013D07B68274A93420FD07B68B3F1804F11
:102A84000BD07B68244A934207D07B68234A934245
:102A940003D07B68224A934208D1FB6823F4407335
:102AA400FB603B68DB68FA681343FB60FB6823F058
:102AB40080023B685B691343FB607B68FA681A60B9
:102AC4003B689A687B68DA623B681A687B689A623A
:102AD4007B680F4A934203D07B680E4A934203D12A
:102AE4003B681A697B681A637B6801225A617B68B8
:102AF4001B6903F00103002B05D07B681B6923F0DD
:102B040001027B681A6100BF1437BD4680BC704760
:102B1400002C014000340140000400400008004043
:102B2400000C004080B487B000AFF860B9607A60F0
:102B3400FB681B6A7B61FB681B6A23F00102FB686C
:102B44001A62FB689B693B613B6923F0F0033B61BC
:102B54007B681B013A6913433B617B6923F00A03D9
:102B64007B617A69BB6813437B61FB683A699A614C
:102B7400FB687A691A6200BF1C37BD4680BC704787
:102B840080B487B000AFF860B9607A60FB681B6AF4
:102B94007B61FB681B6A23F01002FB681A62FB6806
:102BA4009B693B613B6923F470433B617B681B0376
:102BB4003A6913433B617B6923F0A0037B61BB68E3
:102BC4001B017A6913437B61FB683A699A61FB686C
:102BD4007A691A6200BF1C37BD4680BC704780B456
:102BE40085B000AF786039607B689B68FB60FB68E8
:102BF40023F07003FB603A68FB68134343F0070358
:102C0400FB607B68FA689A6000BF1437BD4680BCDD
:102C1400704780B487B000AFF860B9607A603B60F9
:102C2400FB689B687B617B6923F47F437B613B6822
:102C34001A027B681A43BB6813437A6913437B61A6
:102C4400FB687A699A6000BF1C37BD4680BC704738
:102C540080B485B000AF786039607B6893F83C300D
:102C6400012B01D1022350E07B68012283F83C2030
:102C74007B68022283F83D207B681B685B68FB60ED
:102C84007B681B689B68BB60FB6823F07003FB6078
:102C94003B681B68FA681343FB607B681B68FA682F
:102CA4005A607B681B681B4A934218D07B681B6878
:102CB400194A934213D07B681B68B3F1804F0ED03E
:102CC4007B681B68154A934209D07B681B68144AC9
:102CD400934204D07B681B68124A93420CD1BB68B0
:102CE40023F08003BB603B685B68BA681343BB6036
:102CF4007B681B68BA689A607B68012283F83D2070
:102D04007B68002283F83C20002318461437BD4614
:102D140080BC7047002C0140003401400004004096
:102D240000080040000C004080B483B000AF78601D
:102D340000BF0C37BD4680BC704780B483B000AF81
:102D4400786000BF0C37BD4680BC70470346024420
:102D5400934200D1704703F8011BF9E770B50026D0
:102D64000C4D0D4C641BA410A64209D100F01AF8B6
:102D740000260A4D0A4C641BA410A64205D170BD5E
:102D840055F8043B98470136EEE755F8043B98475D
:102D94000136F2E7E42D0008E42D0008E42D0008D4
:102DA400E82D0008F8B500BFF8BC08BC9E46704783
:0C2DB400F8B500BFF8BC08BC9E46704794
:102DC00000000000000000000102030406070809DB
:102DD00002030405060708090A0B0C0D0E0F10105C
:042DE00001020000EC
:042DE40009020008D8
:042DE800E5010008F9
:102DEC0001000000020000000300000004000000CD
:102DFC0000127A0001000000050000000200000033
:0C2E0C00030000001000000001000000A6
:040000050800166574
:00000001FF
